:020000040800F2
:1000000000000220E51C00082D1D00082D1D000821
:100010002D1D00082D1D00082D1D000800000000EA
:100020000000000000000000000000002D1D00087E
:100030002D1D0008000000002D1D00082D1D0008CA
:100040002D1D00082D1D00082D1D00082D1D000868
:100050002D1D00082D1D00082D1D00082D1D000858
:100060002D1D00082D1D00082D1D00082D1D000848
:100070002D1D00082D1D00082D1D000899030008E6
:100080002D1D00082D1D00082D1D00082D1D000828
:100090002D1D00082D1D00082D1D00082D1D000818
:1000A0002D1D00082D1D00082D1D00084905000804
:1000B0002D1D00082D1D00082D1D00082D1D0008F8
:1000C0002D1D00082D1D00082D1D00082D1D0008E8
:1000D0002D1D00082D1D00082D1D00082D1D0008D8
:1000E0002D1D00082D1D00082D1D00082D1D0008C8
:1000F0002D1D00082D1D00082D1D00082D1D0008B8
:100100002D1D00082D1D00082D1D00082D1D0008A7
:100110002D1D00082D1D00082D1D00082D1D000897
:100120002D1D00082D1D00082D1D00082D1D000887
:100130002D1D00082D1D00082D1D00082D1D000877
:100140002D1D00082D1D00082D1D00082D1D000867
:100150002D1D00082D1D00082D1D00082D1D000857
:100160002D1D00082D1D00082D1D00082D1D000847
:100170002D1D00082D1D00082D1D00082D1D000837
:080180002D1D00082D1D0008D3
:1001880010B5054C237833B9044B13B10448AFF3C9
:1001980000800123237010BD7004002000000000BF
:1001A80040300008084B10B51BB108480849AFF3A8
:1001B80000800848036803B910BD074B002BFBD02B
:1001C800BDE81040184700BF00000000403000089C
:1001D800740400206C04002000000000154B002B64
:1001E80008BF134B9D46A3F5803A00218B460F4666
:1001F8001348144A121A02F0D5FB0F4B002B00D0FB
:1002080098470E4B002B00D098470020002104008F
:100218000D000D48002802D00C4802F085FC02F0C1
:1002280099FB2000290001F095FC02F083FB00BF38
:1002380000000800000000000000000000000000AE
:10024800700400209C040020312B00083D2B00087E
:100258002349244A086B244B40F0010010B408637A
:10026800106840F40050106050685060106A40F008
:10027800007010620A6C41F2670442F002024FF407
:100288007A700A641C85D8621A8B5DF8044B92B2A6
:1002980042F068021A831A8C22F002021204120C2D
:1002A8001A841A8892B242F084021A809A8992B209
:1002B80042F484429A819A8992B242F480729A8175
:1002C8009A8A92B242F001029A821A8C92B242F051
:1002D80001021A841A8892B242F001021A80704709
:1002E800003802400000024000040040224A23492E
:1002F800136B43F4001313630B6823F001030B60C3
:100308000B681E4A13F00103FAD170B41C49146833
:100318001C4E1D4D1D482140102411609660D5606B
:100328005460116841F020611160116841F4003196
:100338001160116841F040011160116841F4806159
:100348001160116821431160116841F40051116076
:10035800116841F400611160116841F48071116005
:10036800116841F001014FF40044116080F80F3327
:10037800046070BC704700BF0038024070600240E3
:10038800000010F0340400400400002000E100E008
:10039800044B054A01211970D36843F02003D36048
:1003A800704700BF8C0400200060024070B50D4605
:1003B8002DED088B841E9FED1B8A9FED1BBA9FEDC8
:1003C8001BAADFED1BAA9FED1B9ADFED1B8A00F22B
:1003D800CE76F6EE009A0DE0022D16D067EE097A79
:1003E80038EE288AFCEEE77A17EE903A24F8023FB6
:1003F800B44213D0012DEFD128EE2A0A01F094FC63
:10040800B0EE697AA0EE0A7AE8E728EE0B0A01F066
:100418008BFCB0EE697AA0EE0A7ADFE7BDEC088BB8
:1004280070BD00BF000000007159C446CDCCCC3E61
:10043800CD6FF54600F07F4517B751383C483D4A27
:100448003D4B3E4970B4046B44F0010404631468E6
:1004580024F440341460146844F400341460546A7A
:1004680044F001045462D46824F44034D460D4685D
:1004780044F40034D460426C002442F2CF0642F0C7
:1004880001024FF4FA6542641E85DD621C809C807F
:100498001A8B22F003021204120C1A831A8B22F40C
:1004A80040721204120C1A831A8B92B242F4007230
:1004B80042F001021A831A8C22F002021204120C72
:1004C8001A841A8C22F008021204120C1A841A8C4C
:1004D80022F080021204120C1A841A8C92B242F092
:1004E80020021A841A8C92B242F011021A841A89D4
:1004F80022F070021204120C1A811A8922F00702E3
:100508001204120C1A811A8992B242F054021A810A
:100518009A8992B242F002024FF000609A81086014
:100528001A8892B242F001021A8070BC704700BF6C
:1005380000380240000002400000014000E100E0F5
:1005480038B5244C244800F0DBF9238A9B0707D4EC
:10055800204A138A23F002031B041B0C138238BDA4
:10056800616B1E48A26B00F0CBF91D4B1D495D68FD
:10057800626B098CB2F5617FEAD3606B40F24C4242
:100588009042E5D8A26B952AE2D9A26BB2F5167F04
:10059800DED8A06B012202FA05F5B0F5AF7F01EABB
:1005A800050108D2A26BB2F5AF7F0FD871B95A68AE
:1005B80001325A60CCE729B15868198982400A4348
:1005C8001A81F4E7A26BB2F5AF7FF0D900225A6026
:1005D800BEE700BF00000140282C0008342C0008AA
:1005E8008C040020040000204149424BD1F88820A7
:1005F800414842F47002C1F888201A68002142F08C
:1006080001021A6099601A6822F0847222F480321A
:100618001A6058601A6882B022F480221A60D96081
:10062800009101911A6842F480321A601A4603E078
:10063800009BB3F5A06F09D0136803F4003301934E
:10064800009B01330093019B002BF1D0294B1B68C1
:1006580013F4003318BF01230193019B012B14D01D
:10066800244A2649936823F400039360C2F884104F
:10067800136843F08063136013681B01FCD51C4B9F
:100688004FF000629A6002B070471A4B1C491A6C0E
:100698001C4842F080521A640A6842F480420A6098
:1006A8009A689A609A6842F400429A609A6842F49A
:1006B800A0529A6058601A6842F080721A601A460E
:1006C80011680C4B8901FBD50F4A40F20561116096
:1006D8009A6822F003029A609A6842F002029A60CD
:1006E8001A46936803F00C03082BFAD1B8E700BF49
:1006F80000ED00E000380240103000248040003057
:100708000070004008544007003C024018488368C5
:1007180003F00C03042B28D0082B09D0154B144ADE
:1007280015499268C2F303128A5CD3400B61704783
:100738004368416813F4800F436818BF0F4801F0FD
:100748003F020CBF0B49B0FBF2F1C3F3881308BF9B
:10075800B1FBF2F101FB03F2054B5B68C3F3014304
:1007680001335B00B2FBF3F3D9E7044BD7E700BFD3
:10077800003802400024F4002800002000127A000B
:1007880019491A4A0B6C70B443F0400353264FF4CE
:100798007A7584240B641685D5621480938A9BB27B
:1007A80043F00103938213889BB243F00103138043
:1007B800114650B1138ADB07FCD50B8A23F00103DD
:1007C8001B041B0C01380B82F4D10849064A0B881C
:1007D80023F001031B041B0C0B80136C23F0400354
:1007E800136470BC704700BF003802400018004016
:1007F8001849194A0B6C70B443F04003002654257D
:1008080084240B641685D5621480938A9BB243F0C6
:100818000103938213889BB243F0010313801146AE
:1008280050B1138ADB07FCD50B8A23F001031B04A4
:100838001B0C01380B82F4D10749064A0B8823F0B8
:1008480001031B041B0C0B80136C23F0400313647F
:1008580070BC70470038024000180040114A124B23
:10086800116B41F0010110B41163116C0F4C41F48C
:10087800003111641A6842F0A0021A601A6A42F440
:10088800EE421A629A6842F020029A609A6880B230
:1008980042F0800242F20C019A602081A1815DF849
:1008A800044B7047003802400000024000440040FA
:1008B80003490B88024A5B06FBD580B290807047DB
:1008C800004400400D4A70B4441E00F2FF350D2666
:1008D800104614F8011F49B113885B06FCD589B28C
:1008E800818023780A2B03D0AC42F2D170BC7047C8
:1008F80013885B06FCD58680F6E700BF00440040FD
:100908000FB42DE9F0418CB012AB53F8046B01938E
:100918003278BAB1754C002327461D4631464FF050
:100928000D08252A19D023885806FCD592B2BA801A
:100938000B780A2B0BD00135ADB22B46725D7119BD
:10094800002AEED10CB0BDE8F04104B0704723880E
:100958005B06FCD5A7F80480EDE733445A78002AF3
:10096800E9D0623A162A79D8DFE802F05C6E4C7852
:10097800287878787878787878787878781F787898
:1009880078780C009B78622B7ED0682B00F08B80E7
:10099800772B019B00F09C801A1D013D1B6801927A
:1009A800ADB200934FF400604BE0019B1A1D18682C
:1009B8000192FFF787FF0135ADB2BCE7019B073312
:1009C80023F00703D3E900010833420F21F0784EE2
:1009D8000028019342EACE0371F10002B8BF43F048
:1009E8000043002001F08041009350EA010338D110
:1009F8004FF4807002AA694600F06AFB02A8FFF76C
:100A080061FFD8E79B78622B30D0682B53D0772BC7
:100A1800019B64D01A1D013D1B680192ADB2009381
:100A280020200EE09B78622B27D0682B34D0772BC0
:100A3800019B47D01A1D013D1B680192ADB200937E
:100A480004200135ADB2D5E7019B191D1A78019133
:100A580023885B06FCD593B2BB80ACE700230093E8
:100A6800A9E7009B43F080430093C1E7019B1A1D4F
:100A78001B68019200930820E3E7019B1A1D1B687D
:100A8800019200930120DCE7019B1A1D1B6801926B
:100A980000934FF40070D4E7019B1A1D1B68019264
:100AA80000930220CDE7019B1A1D1B680192009359
:100AB8004FF48060C5E7019B1A1D1B6801920093E3
:100AC8001020BEE71A1D1B68019200930420B8E7A6
:100AD8001A1D1B68019200934FF40060B1E71A1DBC
:100AE8001B68019200932020ABE700BF0044004040
:100AF80070B5ADF5806D6A4600F098F80D4A0DF1B5
:100B0800FF3014460DF2FF350D2610F8011F49B1CC
:100B180013885B06FCD589B2A18003780A2B04D020
:100B2800A842F2D10DF5806D70BD13885B06FCD527
:100B3800A680F5E70044004006490B88054A9B0655
:100B4800FBD59088138823F020031B041B0CC0B22C
:100B58001380704700440040024B42F204029A811D
:100B6800704700BF00440040034B188880F0200005
:100B7800C0F34010704700BF00440040F0B40D4A75
:100B88000D4F00F10A053026914205F8016D08D392
:100B9800312400E01C46891A631C9142DBB2F9D269
:100BA8002C70A7FB023285424FEAD202ECD1F0BC8E
:100BB800704700BF00CA9A3BCDCCCCCC30B40024DF
:100BC8000930234684B90578302D10D00C88155586
:100BD8000C8801340C8001240133DBB20A2B00F1AC
:100BE800FF30EFD130BC70470C880578EFE7092B50
:100BF800F2D1EBE7037830B4B3B1002301339BB2F1
:100C0800C518C25C002AF9D10C784CB10022013217
:100C1800C45492B201338C5C9BB2002CF7D1C51836
:100C280000232B7030BC70470546EDE72DE9F04FE7
:100C38002DED028B89B000239A469146ADF812300B
:100C48001E461A460378029120210190DFEDBC8AE6
:100C5800DFF8F4829FEDBD8A03917BB1BAB9252BE9
:100C680034D0BDF81210481C09F80130ADF8120054
:100C78000136B6B2019B9B5D002BEFD1BDF8122067
:100C880009F8023009B0BDEC028BBDE8F08F012AEB
:100C98001ED0022A32D0032A5AD0042A6AD0052A42
:100CA80000F00981062A00F01F81072A00F0508110
:100CB800BDF81210013609F80130B6B20131019BB6
:100CC800ADF812109B5D002BC8D1D7E70122CFE702
:100CD800642B00F0EE80632B00F0E980662B00F0B7
:100CE8000181732B00F02A81622B00F07181682B3F
:100CF80014BF01220722002BB0D1BFE7029B1A685C
:100D0800002AC0F211818F4905AC0DF11E00302771
:100D1800914200F8017D08D8312500E01D46521A9D
:100D28006B1C8A42DBB2F9D20570A8FB0131A042E4
:100D38004FEAD101ECD10DF112014A46FFF73EFF0F
:100D48000136B6B2019B9B5D0A22002B86D195E73E
:100D5800029ABDF81230126809F8032001360133EF
:100D6800ADF81230B6B2019B9B5D0A22002B7FF4CE
:100D780075AF83E7029B93ED007AB5EEC07AF1EE8A
:100D880010FA00F12781F7EE007AB4EEE77AF1EE77
:100D980010FA00F1088140F339810023B2EE046AA9
:100DA80067EE867A0133B4EEE77AF1EE10FA9BB279
:100DB800F2EE046AF4DCC7EEA67A5D1EADB20DF160
:100DC8001E076049BE4605AC4FF0300CC7EE277AC7
:100DD800BCEEE77A17EE102AB8EE477A77EEC77AB4
:100DE80067EEA87AFCEEE77A17EE90BA91420EF811
:100DF80001CD09D8312000E01846521A431C8A4216
:100E0800DBB2F9D28EF80000A8FB0131A6454FEA03
:100E1800D101EBD10DF1120120464A46FFF7CEFE73
:100E2800484A39463020934501F8010D0CD34FF05C
:100E3800310E00E09E46C2EB0B0B0EF10103934509
:100E4800DBB2F7D281F800E0A8FB0232A1424FEAF8
:100E5800D202E8D12E230DF112014A4620468DF820
:100E68001730FFF7ABFEBDF81220652109F8021014
:100E78000399531C9BB22D29ADF8123000F0BE80A7
:100E8800304A3020954207F8010D08D3312100E09F
:100E98001946AD1A4B1C9542DBB2F9D23970A8FB42
:100EA8000232A7424FEAD202ECD1384643E7032286
:100EB800D4E60222D2E6029911F80A20002A3FF469
:100EC8003FAFBDF8123009F803200AF1010A1FFAF2
:100ED8008AFA013311F80A209BB2002AF3D1ADF83F
:100EE80012302DE70422B9E6BDF81230029A03F158
:100EF8002001126889B230203124002AB4BF09F8D1
:100F0800034009F8030001339BB28B424FEA4202C7
:100F1800F3D10136ADF81230B6B2019B9B5D0A22BF
:100F2800002B7FF49BAEA9E6BDF812302D2109F8FD
:100F3800031001335242ADF81230E4E605228DE683
:100F480000007A4400CA9A3BCDCCCCCCCDCCCC3D69
:100F5800BDF81220029B09EB02001968782430279B
:100F6800931C02F10A0509F802709BB24470ACB2F6
:100F78000A0F092A02F130008ABF373209F8030044
:100F880009F8032001339BB2A3424FEA0111EFD1C4
:100F98000136B6B2019BADF812509B5D0A22002BB8
:100FA8007FF45CAE6AE6B4EEC87AF1EE10FA5FED53
:100FB800197A4FF0010508D567EE887A0135B4EE45
:100FC800E77AF1EE10FAADB2F6D42D230393F6E6E4
:100FD800062243E6BDF81230B1EE477AF7EE007A02
:100FE8002D22B4EEE77A09F80320F1EE10FA03F1A6
:100FF8000103ADF812307FF5CEAED4E702329DF88A
:101008000C1009F80310ADF8122039E74FF6FF75F8
:101018005FED327AD3E600BF037830B4B3B1002372
:1010280001339BB2C218C45C002CF9D10C784CB1C6
:101038001A46551C8454AAB2D41AA4B20C5D002CCA
:10104800F7D102440023137030BC70470246EDE725
:10105800F0B40D4A0D4F00F10A053026914205F80B
:10106800016D08D3312400E01C46891A631C9142A3
:10107800DBB2F9D22C70A7FB023285424FEAD202CA
:10108800ECD1F0BC704700BF00CA9A3BCDCCCCCCA9
:1010980070B40B88002509302C46ADB90678302E7F
:1010A8000FD0D6540B8801339BB20B800125013435
:1010B800E4B20A2C00F1FF30EFD10021D15470BC0A
:1010C8007047092CF3D1ECE70578D554EAE700BF5F
:1010D8002DE9F04784B00023102815461370ADF8A9
:1010E800023000F0548124D9B0F5007F4FD040F28F
:1010F8008280B0F5806F64D0B0F5006F16D11A46C3
:1011080001240B6800E004461B0F092B03F1300093
:101118008ABF3733A854AB54601C0B6880B21B01DC
:1011280009280B602246EED100232B7204B0BDE8DB
:10113800F087022800F0148117D9042840F0248190
:101148000B6805F1200030243126002BB4BF16703F
:1011580014700B6801325B0082420B60F5D10023EA
:1011680085F8203004B0BDE8F0870128DED10B688F
:1011780005F10800302631241F064CBF1470167084
:101188000B6801325B0082420B60F5D1CCE71A464E
:101198000B680124C3F30313092BD8B200F1300301
:1011A80086BF3730A854AB54601C0B6880B21B0153
:1011B80003280B6040F0D1800023AB7004B0BDE879
:1011C800F0871A460B681446C3F30333092BD8B2C9
:1011D80000F130038ABF37302B55285501320B6890
:1011E80092B21B01042A14460B60EDD100232B7127
:1011F80004B0BDE8F087202800F0C980B0F5807FF2
:1012080094D191ED007AB5EEC07AF1EE10FA00F1C2
:10121800FA80F7EE007AB4EEE77AF1EE10FA00F110
:10122800DC8040F301810023B2EE046A67EE867A1F
:101238000133B4EEE77AF1EE10FA9BB2F2EE046AEB
:10124800F4DCC7EEA67A5C1EA4B24FF020080DF1BC
:101258000E077949DFF8ECC1384601AE4FF0300E81
:10126800C7EE277A9FED757AFCEEE76A16EE902AAC
:10127800F8EE666A77EEE67A67EE877AFCEEE77A4A
:1012880017EE90AA914200F801ED0BD84FF0310902
:1012980000E09946521A09F101038A42DBB2F8D2FA
:1012A80080F80090ACFB0131B0424FEAD101E9D19E
:1012B8000DF10209494630462A46FFF7E9FE5E4A23
:1012C800DFF880E139463020524501F8010D0CD88D
:1012D8004FF0310C00E09C46C2EB0A0A0CF1010306
:1012E8009245DBB2F7D281F800C0AEFB02328E42E3
:1012F8004FEAD202E8D12E2349462A4630468DF8D5
:101308000730FFF7C5FEBDF80220531C65219BB2CC
:10131800B8F12D0FA954ADF8023058D0464ADFF87D
:1013280024E13020A24207F8010D08D8312100E05D
:101338001946A41A4B1C9442DBB2F9D23970AEFBA1
:101348000232BE424FEAD202ECD1304649462A4622
:10135800FFF79EFE04B0BDE8F0872246044619E771
:101368000B6805F11000302631241B044CBF1470A3
:1013780016700B6801325B0082420B60F5D10023C6
:101388002B7404B0BDE8F08708287FF4CFAE0A6854
:10139800002A40DB2849DFF8ACE001AE0DF10E046D
:1013A8003027914204F8017D08D8312000E0184622
:1013B800521A431C8A42DBB2F9D22070AEFB0131CB
:1013C800B4424FEAD101ECD10DF10209BDE7023276
:1013D80005F80380ADF80220A0E7DFED197AB4EE36
:1013E800E77AF1EE10FA24D5F0EE676A012467EE89
:1013F800A67A0134B4EEE77AF1EE10FAA4B2F6D484
:101408004FF02D0823E72D220123B1EE477A2A70E9
:10141800ADF80230FDE62D232B700A6801235242F5
:101428000A60ADF80230B5E74FF6FF74DFED047AD5
:101438000BE70124E4E700BF00CA9A3B00007A44A6
:10144800CDCCCC3DCDCCCCCC274A2849284B70B448
:10145800156B284C284E45F002051563156B45F0B1
:1014680004051563256845F4001525600D6845F0E9
:1014780080050D60656A45F4A06565620D6A45F4EE
:10148800A0450D62A56845F40015A5608C6844F078
:1014980080048C60116C41F480411164116B00026E
:1014A800B3FBF0F00530A6FB003041F48051C308CF
:1014B8001163D9070ED4114BC0F30F1018840F4ACB
:1014C800138C9BB243F4007340F62831138470BC2C
:1014D80091837047013B5B0843F48073A2F50032A7
:1014E8009BB21384EBE700BF0038024000080240BB
:1014F800008F423300040240CDCCCCCC00380040F1
:101508002DE9F04182B06C4D01902B6B6B4C6C4A0D
:101518006C4943F008032B63236843F4807323600A
:10152800A36843F40073A3602B6B43F004032B639D
:10153800136843F0087343F400434FF0C046136048
:1015480094201662516200F0C3F8636923F0100317
:1015580063613220FFF714F9636943F01003636194
:101568003220FFF70DF901200246694600F008FA1B
:1015780002A99DF8003041F8043D01245248FFF7C4
:10158800B7FA6946224602208DF8004000F08EF92D
:10159800AF236946224604208DF80030802700F0EA
:1015A80085F96946224605208DF8007000F07EF91D
:1015B80003236946224606208DF8003000F076F9AC
:1015C8006946224608208DF8004000F06FF9694608
:1015D800224609208DF8004000F068F9C0236946CA
:1015E80022460E208DF80030002600F05FF969468B
:1015F80022460F208DF8006000F058F9694622460F
:101608001A208DF8006000F051F9694622461B2027
:101618004FF09E088DF8006000F048F969462246B0
:1016280002208DF8008000F041F94FF4FA70FFF7BE
:10163800A7F899233046694622468DF8003000F015
:1016480035F96946224647208DF8007000F02EF9DA
:101658006946224632208DF8007000F027F9694665
:10166800224632208DF8006000F020F930466946A5
:1016780022468DF8006000F019F9694622460220DA
:101688008DF8008000F012F92B6C104A43F40043E7
:101698002B642B6B40F2031143F480532B631184AA
:1016A800138C9BB243F4007340F618611384918342
:1016B80002B0BDE8F08100BF00380240000C0240D3
:1016C8000008024000060600502C0008003C0040BC
:1016D8000D490E4B0A6B42F0020210B40A631A68F5
:1016E8000B4C42F482221A609A6842F402229A60F1
:1016F800DA6842F48222DA605A6942F410725A6156
:1017080020705DF8044B7047003802400004024026
:101718009804002010B50A4C236843F48223236000
:10172800636943F4107363610520FFF761F8636927
:1017380023F4007363610520BDE81040FFF758B833
:101748000004024010B5134C636923F04003636141
:101758000220FFF74DF8236843F480432360636950
:1017680023F4007363610220FFF742F8636943F0D2
:10177800400363610120FFF73BF8636943F400739A
:1017880063610520FFF734F8636943F410736361FC
:1017980010BD00BF0004024070B5134C236843F429
:1017A8008223064623600825636923F040036361AA
:1017B8000220FFF71DF8636932064CBF43F400733B
:1017C80023F4007363610220FFF712F8636943F0A2
:1017D800400363610420FFF70BF86B1E760013F0DB
:1017E800FF05F6B2E0D170BD0004024070B5134C9D
:1017F800236823F44023236008260025636923F027
:10180800400363610420FEF7F3FF636943F040037C
:1018180063610220FEF7ECFF23696D009B05EDB2C2
:101828004FF0020048BF45F00105FEF7E1FF731EC7
:1018380013F0FF06E2D1284670BD00BF0004024045
:1018480038B5194C636923F0400363610120FEF742
:10185800CFFF636923F400736361236823F4402393
:1018680023600420FEF7C4FF636943F0400363610B
:101878000220FEF7BDFF23699B050CD525461324DE
:101888000120FEF7B5FF2B69013C13F4007FA4B2D9
:1018980001D0002CF4D10220FEF7AAFF024A1368F7
:1018A80043F48023136038BD0004024012B3F8B536
:1018B800013A114F044611FA82F64D1EFFF72AFF2E
:1018C8003878FFF769FFFFF7BBFF2046FFF764FF93
:1018D800FFF7B6FF15F8010FFFF75EFFFFF7B0FF40
:1018E800FFF730FF0520FEF74BFF0134B542E4B2A5
:1018F800E4D1F8BD704700BF9804002010B50F4C24
:10190800636923F0400363610120FEF771FF2368D8
:1019180043F480232360636923F400736361042024
:10192800FEF766FF636943F0400363610420FEF736
:101938005FFF636923F04003636110BD0004024048
:1019480010B50E4C636923F0400363610220FEF773
:101958004FFF236843F480232360636943F40073D3
:1019680063610220FEF744FF636943F0400363614B
:101978000420BDE81040FEF73BBF00BF0004024052
:10198800F8B5184C15460E460746FFF7C3FE2078F3
:10199800FFF702FFFFF754FF3846FFF7FDFEFFF79A
:1019A8004FFFFFF7B7FE207840F00100FFF7F4FE85
:1019B800FFF746FFADB1013D16FA85F7741E03E047
:1019C800FFF79CFFBC420CD0FFF710FF04F8010F93
:1019D800A31BAB42F4D1FFF7B3FFFFF7B3FEBC4242
:1019E800F2D1F8BD980400200A4A0B4B116B0B4842
:1019F80041F001011163116C41F0005111641A6842
:101A080042F440721A60DA683C2122F44072DA60CB
:101A18000160704700380240000002400074004036
:101A280005494B68044ADB07FBD4C0F30B000123CC
:101A380090605360704700BF00740040394B3A4AC9
:101A48002DE9F0411D6B394F394C3A4E45F00105EF
:101A58001D633D6845F440753D601D6C4FF05308AB
:101A680045F010054FF0640C4FF0840E20271D64DC
:101A7800A2F82880C2F82CC0A2F800E09780958AC6
:101A8800ADB245F0010595821588ADB245F0010566
:101A980015801A6C42F000521A6422684FF480557F
:101AA80022F0010222602560226842F004022260CE
:101AB800226842F0010222601A6B002542F40012EB
:101AC8001A633446356022681A4BD207FBD41A4A87
:101AD8001A4D4FF0FF349460D4609D60D86059600F
:101AE8001A6842F060621A601A6842F440321A605A
:101AF8001A6842F480621A601A6842F480721A60A6
:101B08001A6842F400621A601A6842F400521A60B5
:101B18001A6842F040021A601A6842F001021A601C
:101B2800BDE8F0810038024000100040000002408B
:101B38000074004088600240006002400874004061
:101B480070300008000000206C04002070040020A1
:101B58009C0400202DE9F04FADF6A47DFEF76EFC45
:101B68002D20FEF77BFEFFF73FFF1E204BF680314E
:101B7800FFF7C6FC68460121FEF718FC02210DF5A7
:101B8800FA60FEF713FC4A494A4B0A6B4A4EDFF8E3
:101B980040B1DFF84081DFF820A142F001020A637A
:101BA8001A6822F003021A60DA6822F00302DA6087
:101BB800DA6842F00202DA6073680025102B5F468B
:101BC8002C461CD03B4B1B69DA072FD4BBF80830D6
:101BD8009B07FBD50023BB81002D3AD0002D5FD198
:101BE800B4F57A7F4FF4FA7024BF85F0010500241C
:101BF800FEF7FEFD7368DFF8C0A0102BE2D14FF0AE
:101C080000092E48CAF80490FEF77AFE2C48BAF864
:101C18000810FEF775FE2B4B2B48198CFEF770FE4B
:101C2800244BAAF808901B69DA07CFD54FF4FA704D
:101C3800FEF7A6FD3378204A8BB901231370FEF70F
:101C480007FBFEF753FB214A136843F001031360B7
:101C5800BCE73DF81400FFF7E3FE0134C0E7DFF806
:101C680078A00123002010701846CAF83430FEF717
:101C780087FDD8F80030154A23F00103C8F8003072
:101C8800BAF8003023F001031B041B0CAAF800303B
:101C9800136823F0010313606420FEF771FD95E7D4
:101CA8000DF5FA6333F81400FFF7BAFE013497E72D
:101CB80000380240000002408C040020102C00086C
:101CC800202C000804000020482C00080074004064
:101CD800003C00407060024000040040002103E026
:101CE8000B4B5B58435004310A480B4B42189A423D
:101CF800F6D30A4A02E0002342F8043B084B9A4212
:101D0800F9D3FEF771FC00F025FEFFF723FF7047BB
:101D180070300008000000206C04002070040020CF
:101D28009C040020FEE7000000B510EE103A1B4AA4
:101D380023F00043934283B01ADDB3F1FF4F04DB75
:101D480030EE400A03B05DF804FB684600F02AF85C
:101D580000F0030001289DED000ADDED010A15D011
:101D680002280DD0A8B100F065F9B1EE400AE9E704
:101D7800DFED0B0A002000F0D1FC03B05DF804FB96
:101D8800012000F0CBFCB1EE400ADBE700F052F98D
:101D9800D8E7012000F0C2FCD4E700BFD80F493FC4
:101DA8000000000070B510EE103A944A23F0004489
:101DB800944286B010EE106A054666DD904A944259
:101DC8001ADC002BDFED8F7A8F4A24F00F0440F3E2
:101DD800DD80944270EE677A66D09FED8C7A77EE5C
:101DE800C76A012077EEE67AC5ED006A77EEC77A12
:101DF800C5ED017A06B070BD854A944266DDB4F13E
:101E0800FF4F49DAE215863AA4EBC25307EE103ABF
:101E1800FDEEC76ADFED7F7AF8EEE66A37EE667A9E
:101E2800CDED036A27EE277AFDEEC76AF8EEE66A7B
:101E380037EE667ACDED046A67EE277AF5EE407ADA
:101E4800F1EE10FACDED057A40F0B380F5EE406A78
:101E5800F1EE10FA14BF022301236F4902208DE826
:101E6800030003A8294600F067F9002E12DA95ED61
:101E7800007AD5ED017AB1EE477AF1EE677A404201
:101E880085ED007AC5ED017A04E0002285ED000AAF
:101E98004260002006B070BD70EE407A0020C5EDAB
:101EA800017AC5ED007AF5E7DFED5C6A9FED5C7AB3
:101EB80077EEE67A012077EEC76A77EEE67AC5ED27
:101EC800006A77EEC77AC5ED017AE3E700F06EFCA9
:101ED800DFED546ADFED4B5A9FED4C7AF6EE007A4F
:101EE800E0EE267AFDEEE77A17EE900AF8EEE76A5A
:101EF8001F28B1EE666AA6EE250A66EE877A1DDC13
:101F0800494A411E24F0FF0352F82120934215D07C
:101F180030EE677A85ED007A30EE470A002E30EE13
:101F2800670A85ED010AB5DAB1EE477AB1EE400AE3
:101F380085ED007A85ED010A4042ABE730EE677A1D
:101F4800E41517EE103AC3F3C753E31A082BE1DD83
:101F5800DFED327A9FED327AF0EE405AE6EE275AFC
:101F680030EE650AA6EE270AF0EE407AD6EE877ABA
:101F780035EEE77A17EE103AC3F3C753E41A192C73
:101F88002CDC85ED007AB0EE650AC5E7944270EE68
:101F9800277A10D09FED1D7A77EE876A4FF0FF30D1
:101FA80077EEE67AC5ED006A77EE877AC5ED017AB5
:101FB80070E7032351E7DFED196A9FED197A77EE91
:101FC800A67A4FF0FF3077EE876A77EEE67AC5EDAE
:101FD800006A77EE877AC5ED017A5BE79FED137AA1
:101FE8009FED135AB0EE650AA6EE070A75EEC07AA1
:101FF800E6EE077AD6EE857A8AE700BFD80F493F22
:10200800E3CB1640800FC93FD00FC93F4344353753
:10201800800F494300008043E82C0008004435370E
:1020280008A3852E84F9223F682C000800A3852E7A
:1020380032318D2410EE103A23F00043B3F1485F9B
:102048002CDAFDEEC07A17EE903A002B60D020EE25
:10205800007ADFED314A9FED315ADFED315A9FEDBD
:10206800316ADFED317ADFED316AA7EE245AE5EE09
:10207800075AA5EE876AE6EE077AE7EE876A66EE04
:10208800876A60EEC00AB6EE006AE7EE260AF7EE47
:10209800007AD7EE060A37EEE00A704720EE007A9B
:1020A800DFED1D4A9FED1D5ADFED1D5A9FED1D6A9C
:1020B800DFED1D7ADFED1D6A1D4AA7EE245A934213
:1020C800E5EE075AA5EE876AE6EE077AE7EE876A35
:1020D80066EE876AD5DD174A934214DC03F17F4325
:1020E80007EE903AB7EE006A36EE676A60EEC00A0D
:1020F800F6EE005AE7EE260AD7EE257A77EEE07A72
:1021080036EE670A7047B6EE076AF5EE027AEDE733
:10211800B7EE000A704700BF4ED747ADF6740F31CF
:102128007CF293B4010DD037610BB6BAABAA2A3D45
:102138009999993E0000483F2DE9F04F2DED048B09
:10214800D7B05F1ED74C649D0293D31E48BF131DA2
:1021580054F825600191DB1023EAE3736FEA030B5F
:10216800B9190393824602EBCB0BA3EB070314D4F4
:102178001944659801311AAA002BAABF50F82340C8
:10218800DFEDCC7A07EE904A03F10103A8BFF8EE21
:10219800E77A8B42E2EC017AEED1002E1ADB029B41
:1021A8001AA9741C01EB840442A89D00002FC0F2F8
:1021B800BA81DFEDC07A52464B1933ED017AF2EC61
:1021C800016A9942E6EE877AF7D10431A142E0EC40
:1021D800017AEBD1029ADFEDB48A9FEDB48A06F159
:1021E8008043013B9B00C2EB827906AA03F10408F5
:1021F8001344904404934FEA89093446A50056AB2A
:102208002B44002C13ED140A18DD42A94B1905AA1A
:1022180060EE287AB0EE407AFDEEE77A73ED016A57
:10222800F8EEE77A8B42A7EEC87A37EEA60ABDEE3B
:10223800C77A17EE100A42F8040FE9D1584600F0A1
:1022480005FBB0EE409AB4EE000A29EE000A00F051
:10225800B5FAF2EE007AA0EE679ABBF1000FFDEE38
:10226800C99AF8EEE97A39EE679A40F34181601E1F
:1022780006AACBF1080352F8201041FA03F202FA39
:1022880003F30DF1180EC91A4EF8201019EE900A32
:102298001044CBF1070309EE900A1941002939DDF2
:1022A80019EE903A002C03F1010309EE903A40F33D
:1022B800CB81002210460DF1140E08E0C3F5807C96
:1022C80013B1CEF800C00120013294420CDD5EF853
:1022D800043F0028F2D00132C3F1FF039442CEF844
:1022E80000304FF00100F2DCBBF1000F10DDBBF154
:1022F800010F00F00481BBF1020F09D1621E06AB89
:102308000DF1180E53F8223003F03F034EF8223037
:10231800022959D0B5EE409AF1EE10FA66D1631E43
:102328009E420BDC06AA1544002255F8040D4545CB
:1023380042EA0002F9D1002A40F07081731E06AA11
:1023480052F82330002B40F07C81049B4FF0010EA3
:1023580053F8042D0EF1010E002AF9D0A644631C8F
:1023680073452FDC039A9D18029A05F18045A01841
:102378000EEB020C659A013D02EB85051AAA02EBE9
:10238800800002EB8C0C42AA02EB830455F8043F50
:1023980007EE903AF8EEE77A002FE0EC017ADFEDED
:1023A800457A0BDB524600EB0901034633ED017A0F
:1023B800F2EC016A8B42E6EE877AF7D16045E4ECED
:1023C800017AE3D1744619E7B7EE000A30EE499A6C
:1023D80000289FD05846059100F038FA39EE409A07
:1023E8000599B5EE409AF1EE10FA98D0B0EE490A88
:1023F800CBF10000029100F029FA9FED2C7A0299A6
:10240800B4EEC70AF1EE10FAC0F27E81DFED267A4B
:1024180060EE277A06A8FDEEE77A631CF8EEE77A05
:102428000BF1080BA7EEC70AFDEEE77ABDEEC00A6E
:1024380010EE102A40F8242017EE902A40F82320A6
:102448005846B7EE000A0393029100F0FFF9039B88
:102458000299002BC0F2C78003F1010E4FEA8E02E9
:1024680042AC06A89FED107A1044A71870ED017AC7
:10247800F8EEE77A67EE807A20EE070A67ED017AD0
:10248800A742F3D1043A17440025002EC0F2A880D1
:10249800002DC0F2A580064CDFED067A38460022F2
:1024A8000CE000BF003000080000803B00008043C3
:1024B8000C30000800000000AA4208DCF4EC016AB5
:1024C800B0EC017A01329642E6EE877AF4DA56AA3F
:1024D80002EB850201357545A7F1040742ED287A1C
:1024E800D3D1649A032A5FD8DFE802F0673737B0A0
:1024F80010D1631E06AA52F823100912CEE6621EF6
:1025080006AB0DF1180E53F8223003F07F034EF896
:102518002230FDE6F6EE007AB4EEE79AF1EE10FA14
:102528000ADA0021F6E65FED1D7A0431A142E0ECFB
:10253800017A7FF43BAE4DE619EE903A002C03F198
:10254800010309EE903AC8BF02213FF7B2AEF7EE99
:10255800007A37EEC99A0221DCE62EAA5FED2B7AC3
:1025680002EB8E0E3EED017A964577EE877AF9D129
:10257800002943D0DDED2E6A019AB1EE677A002B6F
:1025880076EEE77A82ED007A09DD2FA80122B0EC19
:10259800017A0132934277EE877AF8DA09B1F1EEDF
:1025A800677A019BC3ED017A19EE903A03F00700B0
:1025B80057B0BDEC048BBDE8F08F2EAA5FED437ACF
:1025C80002EB8E0E3EED017A013B5A1C77EE877ABC
:1025D800F8D109B1F1EE677A019BC3ED007AE3E720
:1025E8005FED4C7A73E7649A032ADDD8DFE802F0DE
:1025F800130202805FED517A0029BBD19DED2E7A3E
:10260800019A002BC2ED007A77EE677ABDDC019B58
:10261800C3ED017AC8E75FED597ADAE706AAABF1AC
:10262800080B52F82320002A7FF40AAF06AA02EB0F
:10263800830252F8040D013BABF1080B0028F8D0D7
:10264800FEE64FF0010E89E600204DE6002B4FDD37
:102658009A0056A810442EAD141D10ED287A2C446B
:10266800A81870ED017A77EE276AA84277EEE67A25
:1026780077EE277AB0EE667A64ED017AC0ED006AEB
:10268800EFD1012B34DD131D56AC1444034414ED73
:10269800287A02442FAC184672ED017A77EE876AE1
:1026A800A24277EEE67A77EE877AB0EE667A60ED48
:1026B800017AC2ED006AEFD15FED827A30AA33ED7C
:1026C800017A934277EE877AF9D1A9B1DDED2E6AC6
:1026D8009DED2F7A019AF1EE677AF1EE666AB1EE16
:1026E800477AC2ED027AC2ED006A82ED017A5BE7B1
:1026F8005FED907A0029E9D101982E9A2F9BC0EDC1
:10270800027A026043604FE7BDEEC00A06A810EEE9
:10271800102A234640F8242092E600BF10EE103A13
:1027280023F00043B3F1485F04DAFDEEC07A17EEF8
:10273800903A23B360EE007A9FED155ADFED155AF3
:102748009FED156ADFED156A9FED157AE7EE855A5C
:1027580027EE805AA5EEA76AE6EE276AA6EEA77AC4
:1027680070B127EE457AF6EE006AA0EEA67ADFEDA4
:102778000D6AD7EE270AE5EE260A30EE600A7047A2
:10278800DFED096AE7EE876AA6EE850A704700BFA3
:10279800D3C92E2F342FD7B21BEF3836010D50B9BD
:1027A8008988083CABAA2A3EABAA2ABE10EE103A8A
:1027B80023F0004300EE103A704700BF10EE102AD5
:1027C80022F00041CB0D7F3B162B17DC002B10EEBF
:1027D800100A19DB1A491941114222D0DFED197A82
:1027E80070EE277AF5EEC07AF1EE10FA19DD002ABC
:1027F80018DB20EA010300EE103A7047B1F1FF4FF1
:102808000FD330EE000A7047DFED0E7A70EE277AAC
:10281800F5EEC07AF1EE10FA03DD002A08DB9FED31
:102828000A0A70474FF4000242FA03F31844E0E73B
:102838000029FFEE007A18BFB0EE670A704700BFA4
:10284800FFFF7F00CAF249710000000008B510EED2
:10285800103A33F000422DED028B11D0B2F1FF4F48
:1028680011D2B2F5000F13D3D20D0244FE2A2EDC8A
:10287800002A1ADD23F0FF4343EAC25300EE103A60
:10288800BDEC028B08BDBDEC028B30EE000A08BD22
:102898001D4BDFED1E7A984220EE270A22DB10EE50
:1028A800103AC3F3C752193ADFE712F1160F1EDACE
:1028B8004CF2503398420ADC9FED158AF0EE400A3C
:1028C800B0EE480A00F02AF820EE080AD8E79FED93
:1028D800118AF0EE400AB0EE480A00F01FF820EE28
:1028E800080ACDE7DFED0A0A20EE200AC8E7193208
:1028F80023F0FF4343EAC253DFED077A00EE103AB4
:1029080020EE270ABCE700BFB03CFFFF0000004CE8
:102918006042A20DCAF249710000003310EE103A6D
:1029280023F0004210EE903A03F00043134300EE08
:10293800103A704708B50021044600F08BF8044BA4
:102948001868C36B03B19847204600F083FB00BFAB
:102958003C30000870B50F4E0F4D761BB61018BFEF
:10296800002405D0013455F8043B9847A642F9D114
:102978000A4E0B4D761B00F061FBB61018BF002401
:1029880006D0013455F8043B9847A642F9D170BDEA
:1029980070BD00BF64300008643000086C30000867
:1029A8006430000870B4840746D0541E002A41D011
:1029B800CDB2034602E0621EE4B3144603F8015B9D
:1029C8009A07F8D1032C2ED9CDB245EA05250F2C4C
:1029D80045EA054519D903F110022646103E0F2E87
:1029E80042F8105C42F80C5C42F8085C42F8045C5F
:1029F80002F11002F2D8A4F1100222F00F0204F042
:102A08000F041032032C13440DD91E462246043AF3
:102A1800032A46F8045BFAD8221F22F00302043284
:102A2800134404F003042CB1C9B21C4403F8011B7D
:102A3800A342FBD170BC704714460346C2E700BFEF
:102A4800024B13B1024800F06FB870470000000055
:102A58003D2B00082DE9F04F314B83B01B680093E4
:102A680003F5A47381460E460193009BD3F8487181
:102A780027B3DDF804A07C68651E0ED4013407EB8B
:102A880084044FF00008E6B1D4F80031B34218D0FE
:102A9800013D6B1CA4F10404F5D1224B73B17B6892
:102AA800002B36D13B68002B34D03846CAF80030AA
:102AB800AFF30080DAF80070002FDCD103B0BDE876
:102AC800F08F7B682268013BAB420CBF7D60C4F885
:102AD8000080002ADCD0D7F88831D7F804B001216B
:102AE800A940194208D190477B685B45BDD1DAF807
:102AF8000030BB42CCD0B8E7D7F88C31194204D1AA
:102B08004846D4F880109047EEE7D4F88000904704
:102B1800EAE73B68BA461F46002FACD1CEE700BFB4
:102B28003C30000800000000014600200246034631
:102B380000F016B838B5084B084DED1AAC1018BFA0
:102B4800ED1805D0013C55F8043D9847002CF9D103
:102B5800BDE8384000F078BA6C30000870300008E2
:102B68002DE9F047254C2568D5F8484106468846A2
:102B780092469946CCB360681F2818DC431C7EB186
:102B880004EB80050121C5F888A0D4F8887101FA02
:102B980000F21743022EC4F88871C5F808911ED0B8
:102BA8000230636044F820800020BDE8F087144BB1
:102BB80003B34FF4C870AFF300800446D0B1D5F822
:102BC8004831002780E88800C5F848413846012385
:102BD800C4F88871C4F88C71002EE1D0D0E7D4F81D
:102BE8008C110A43C4F88C21DAE705F5A674C5F8F8
:102BF8004841C0E74FF0FF30BDE8F0873C3000089F
:102C080000000000FEE700BF4752454154205355DD
:102C18004343455353210A002578770A00000000F2
:102C2800696E74657272757074000000506572691F
:102C38006F643A202578770A4475747920433A20DE
:102C48002578770A0A0000002D3E20435334334C80
:102C580032323A204944205B25685D0A00000000B2
:102C6800000FC93F000F494000CB9640000FC940F4
:102C78000053FB4000CB164100ED2F41000F4941A6
:102C88000031624100537B41003A8A4100CB9641B2
:102C9800005CA34100EDAF41007EBC41000FC9417B
:102CA80000A0D5410031E24100C2EE410053FB4192
:102CB80000F20342003A0A420083104200CB164257
:102CC80000141D42005C234200A5294200ED2F425A
:102CD80000363642007E3C4200C74242000F49425D
:102CE800A2000000F9000000830000006E00000050
:102CF8004E000000440000001500000029000000FC
:102D0800FC0000002700000057000000D100000070
:102D1800F500000034000000DD000000C0000000E5
:102D2800DB00000062000000950000009900000030
:102D38003C0000004300000090000000410000003B
:102D4800FE0000005100000063000000AB0000001E
:102D5800DE000000BB000000C500000061000000AC
:102D6800B7000000240000006E0000003A000000D8
:102D7800420000004D000000D2000000E00000000A
:102D880006000000490000002E000000EA000000D4
:102D980009000000D1000000920000001C000000A3
:102DA800FE0000001D000000EB0000001C000000F9
:102DB800B100000029000000A70000003E0000004C
:102DC800E80000008200000035000000F500000067
:102DD8002E000000BB00000044000000840000003A
:102DE800E90000009C0000007000000026000000C0
:102DF800B40000005F0000007E00000041000000F9
:102E08003900000091000000D600000039000000E1
:102E1800830000005300000039000000F4000000A7
:102E28009C000000840000005F0000008B00000090
:102E3800BD000000F9000000280000003B00000071
:102E48001F000000F800000097000000FF000000CD
:102E5800DE00000005000000980000000F000000E0
:102E6800EF0000002F000000110000008B000000A0
:102E78005A0000000A0000006D0000001F0000005A
:102E88006D000000360000007E000000CF0000004A
:102E980027000000CB00000009000000B700000078
:102EA8004F000000460000003F00000066000000E0
:102EB8009E0000005F000000EA0000002D000000F6
:102EC8007500000027000000BA000000C7000000DD
:102ED800EB000000E5000000F10000007B000000AE
:102EE8003D0000000700000039000000F700000066
:102EF8008A0000005200000092000000EA00000072
:102F08006B000000FB0000005F000000B100000043
:102F18001F0000008D0000005D0000000800000098
:102F280056000000030000003000000046000000CA
:102F3800FC0000007B0000006B000000AB000000FC
:102F4800F0000000CF000000BC00000020000000DE
:102F58009A000000F4000000360000001D00000088
:102F6800A9000000E30000009100000061000000DB
:102F78005E000000E60000001B00000008000000E2
:102F88006500000099000000850000005F00000057
:102F980014000000A00000006800000040000000CD
:102FA8008D000000FF000000D80000008000000035
:102FB8004D000000730000002700000031000000F1
:102FC8000600000006000000150000005600000082
:102FD800CA00000073000000A8000000C90000003B
:102FE80060000000E20000007B000000C00000005C
:102FF8008C0000006B0000000400000007000000C7
:10300800090000000000C93F0000F0390000DA376D
:103018000000A2330000842E0000502B0000C227BD
:103028000000D0220000C41F0000C61B0000441787
:10303800430000004000002000000000F8B500BF79
:10304800F8BC08BC9E467047F8B500BFF8BC08BC81
:043058009E467047D9
:08305C0088D1FF7F0100000094
:08306400492A0008AD01000833
:04306C0089010008CE
:1030700000000000FA00F401FA00F401F401F40188
:10308000FA00FA00FA00F401FA00F401FA00FA007A
:10309000F401F4013ACA1000000000000000000032
:1030A0000102030406070809007A030A0000000071
:1030B000000000002C03002094030020FC030020EB
:1030C0000000000000000000000000000000000000
:1030D00000000000000000000000000000000000F0
:1030E0000000000038300008000000000000000070
:1030F00000000000000000000000000000000000D0
:1031000000000000000000000000000000000000BF
:1031100000000000000000000000000000000000AF
:10312000000000000000000000000000000000009F
:10313000000000000000000000000000000000008F
:10314000000000000000000000000000000000007F
:10315000000000000000000001000000000000006E
:103160000E33CDAB34126DE6ECDE05000B00000033
:10317000000000000000000000000000000000004F
:10318000000000000000000000000000000000003F
:10319000000000000000000000000000000000002F
:1031A000000000000000000000000000000000001F
:0C34D00000000000000000004000002090
:0434DC0000000000EC
:0400000508001CE5EE
:00000001FF
