:020000040800F2
:1000000000000220B11A0008F91A0008F91A0008C5
:10001000F91A0008F91A0008F91A0008000000008F
:10002000000000000000000000000000F91A0008B5
:10003000F91A000800000000F91A0008F91A00086F
:10004000F91A0008F91A0008F91A0008F91A000844
:10005000F91A0008F91A0008F91A0008F91A000834
:10006000F91A000889060008F91A0008F91A0008A8
:10007000F91A0008F91A0008F91A0008F91A000814
:10008000F91A0008F91A0008F91A0008F91A000804
:10009000F91A0008F91A0008F91A0008F91A0008F4
:1000A000F91A0008F91A0008F91A0008F91A0008E4
:1000B000F91A0008F91A0008F91A0008F91A0008D4
:1000C000F91A0008F91A0008F91A0008F91A0008C4
:1000D000F91A0008F91A0008F91A0008F91A0008B4
:1000E000F91A0008F91A0008F91A0008F91A0008A4
:1000F000F91A0008F91A0008F91A0008A9180008E6
:10010000F91A0008F91A0008F91A0008F91A000883
:10011000F91A0008F91A0008F91A0008F91A000873
:10012000F91A0008F91A0008F91A0008F91A000863
:10013000F91A0008F91A0008F91A0008F91A000853
:10014000F91A0008F91A0008F91A0008F91A000843
:10015000F91A0008F91A0008F91A0008F91A000833
:10016000F91A0008F91A0008F91A0008F91A000823
:10017000F91A0008F91A0008F91A0008F91A000813
:08018000F91A0008F91A000841
:1001880010B5054C237833B9044B13B10448AFF3C9
:1001980000800123237010BD5004002000000000DF
:1001A800841E0008084B10B51BB108480849AFF376
:1001B80000800848036803B910BD074B002BFBD02B
:1001C800BDE81040184700BF00000000841E00086A
:1001D800540400204C04002000000000154B002BA4
:1001E80008BF134B9D46A3F5803A00218B460F4666
:1001F8001348144A121A01F0B5FC0F4B002B00D01B
:1002080098470E4B002B00D098470020002104008F
:100218000D000D48002802D00C4801F065FD01F0E2
:1002280079FC2000290000F0EFF901F063FC00BF21
:1002380000000800000000000000000000000000AE
:1002480050040020D42B0020F11C0008FD1C0008DD
:1002580080B483B000AF78602A4A2A4B1B6C43F005
:1002680040031364284B53221A85274B4FF47A72A4
:10027800DA62254B84221A80234A234B9B8A9BB23D
:1002880043F001039BB293821F4A1F4B1B889BB20A
:1002980043F001039BB2138012E000BF1A4B1B8A84
:1002A8009BB203F00103002BF8D0174A164B1B8AA8
:1002B8009BB223F001039BB213827B68013B7B60F6
:1002C8007B68002B03D0114B1B78012BE5D00E4A1D
:1002D8000D4B1B8A9BB223F001039BB213820A4A7F
:1002E800094B1B889BB223F001039BB21380054A7C
:1002F800044B1B6C23F0400313640C37BD465DF8B8
:10030800047B7047003802400018004004000020B9
:1003180080B483B000AF7860244A244B1B6C43F050
:1003280040031364224B53221A85214B4FF47A72EF
:10033800DA621F4B84221A801D4A1D4B9B8A9BB28E
:1003480043F001039BB29382194A194B1B889BB255
:1003580043F001039BB2138012E000BF144B1B8AC9
:100368009BB203F00103002BF8D0114A104B1B8AF3
:100378009BB223F001039BB213827B68013B7B6035
:100388007B68002BE9D10A4A094B1B889BB223F0F2
:1003980001039BB21380054A044B1B6C23F04003F6
:1003A80013640C37BD465DF8047B70470038024083
:1003B8000018004080B483B000AF7860244A244B12
:1003C8001B6C43F040031364224B00221A85214B17
:1003D8005422DA621F4B84221A801E4A1D4B9B8AC4
:1003E8009BB243F001039BB293821A4A194B1B88B4
:1003F8009BB243F001039BB2138012E000BF154B80
:100408001B8A9BB203F00103002BF8D0114A114B51
:100418001B8A9BB223F001039BB213827B68013BCA
:100428007B607B68002BE9D10A4A0A4B1B889BB288
:1004380023F001039BB21380054A054B1B6C23F084
:10044800400313640C37BD465DF8047B704700BF5A
:10045800003802400018004080B400AF0C4A0C4B32
:100468001B6C43F0080313640A4B53221A85094B8B
:100478004FF0FF32DA62074B84221A80054B0022C4
:100488009A80044B00225A62BD465DF8047B70478F
:1004980000380240000C004080B400AF094A094B04
:1004A8009B8A9BB243F001039BB29382054A054B9A
:1004B8001B889BB243F001039BB21380BD465DF8D5
:1004C800047B7047000C004080B483B000AF094B38
:1004D8005B6A7B60074A074B1B889BB223F00103CA
:1004E8009BB213807B6818460C37BD465DF8047BC9
:1004F800704700BF000C004080B400AF194A194B88
:100508001B6C43F0010313644FF0804353221A8598
:100518004FF080434FF0FF32DA624FF0804384227D
:100528001A804FF0804300229A804FF080430022C7
:100538005A624FF080424FF080439B8A9BB243F04F
:1005480001039BB293824FF080424FF080431B8897
:100558009BB243F001039BB21380BD465DF8047B58
:10056800704700BF0038024080B483B000AF4FF03E
:1005780080435B6A7B607B6818460C37BD465DF834
:10058800047B704780B485B000AF786039604FF065
:1005980080435B6AFB60FA687B689A4209D37A6891
:1005A8003B681A44FB689A4201D800230DE00123F6
:1005B8000BE07B68DB43BB60FA68BB681A443B68A6
:1005C8009A4201D3002300E0012318461437BD46A0
:1005D8005DF8047B704700BF80B483B000AF03466A
:1005E800FB71084997F907305B09FA7902F01F0295
:1005F800012000FA02F241F823200C37BD465DF8CD
:10060800047B704700E100E080B582B002AF4FF490
:10061800B67000F0D5FD154800F026FE144800F02D
:1006280023FE124800F020FE01F066F801F0CCF835
:1006380000F05AF800F0A8FB0E4B1B78002B05D0F1
:100648000D4800F011FE00F017FC0EE00B4800F01A
:100658000BFE01F007FA0023009300204021FF223F
:10066800002301F057F901F075F9E5E7D01D0008FE
:10067800081E000804000020201E0008381E00087C
:1006880080B500AF124B1B691248194600F0ECFD0B
:10069800114B5B6903F00803002B18D00C4B1B6946
:1006A80003F00803002B06D00C4B00221A700C48EC
:1006B80000F0DAFD05E00B4800F0D6FD074B0122FB
:1006C8001A70054A044B5B6943F00803536180BD07
:1006D80000080240541E0008003C014004000020AD
:1006E8006C1E0008741E000880B500AF1A4A1A4B29
:1006F8001B6B43F004031363184A184B1B6823F061
:10070800C0031360154A154BDB6823F0C003D360A0
:10071800124A124BDB6843F08003D3600E4A0E4B3B
:100728005B6C43F4804353640920FFF755FF0C4B7F
:100738004FF400529A600B4B08221A60094A094B81
:100748005B6823F008035360064B08229A60054B48
:100758000822DA6080BD00BF00380240000802406D
:1007680000380140003C014080B485B000AF78609B
:100778003960184BBB600023FB7323E0FB7BC3F19C
:1007880009031A467B68134430221A700DE0FB7B7C
:10079800C3F109031A467B6813441A780132D2B2AE
:1007A8001A703A68BB68D31A3B603A68BB689A42C9
:1007B800EDD2BB68084AA2FB0323DB08BB60FB7BC6
:1007C8000133FB73FB7B092BD8D91437BD465DF881
:1007D800047B704700CA9A3BCDCCCCCC80B487B0A0
:1007E80000AFF860B9607A600023FB750023BB7521
:1007F8000023FB753AE0BB7D002B21D1FB7DC3F1C3
:1008080009031A46FB6813441B78302B02D1FB7D81
:10081800092B28D10123BB75BB681B881A467B6846
:100828001344FA7DC2F109021146FA680A441278A3
:100838001A70BB681B8801339AB2BB681A8012E031
:10084800BB681B881A467B681344FA7DC2F109020B
:100858001146FA680A4412781A70BB681B8801337B
:100868009AB2BB681A80FB7D0133FB75FB7D092BAF
:10087800C1D9BB681B881A467B68134400221A70CA
:100888001C37BD465DF8047B704700BF80B590B04B
:1008980000AF0346B9607A60FB8100237B827B68E6
:1008A80000221A70FB89202B00F0B080202B10DC6E
:1008B800042B00F08180042B04DC012B24D0022BB4
:1008C8004ED050E2082B00F0A180102B00F09E8043
:1008D80049E2B3F5807F00F0C180B3F5807F06DC84
:1008E800402B00F04582802B00F044823BE2B3F5B8
:1008F800806F00F0C481B3F5006F00F0FB81B3F5A1
:10090800007F00F081812EE2002387F83F301CE051
:10091800BB681B6803F08003002B06D097F83F30B4
:100928007A68134431221A7005E097F83F307A68E4
:10093800134430221A70BB681B685A00BB681A60DF
:1009480097F83F30013387F83F3097F83F30072B4F
:10095800DED997F83F307A68134400221A700AE209
:10096800002387F83F301CE0BB681B6803F4004392
:10097800002B06D097F83F307A68134431221A705A
:1009880005E097F83F307A68134430221A70BB6844
:100998001B685A00BB681A6097F83F30013387F824
:1009A8003F3097F83F300F2BDED997F83F307A6801
:1009B800134400221A70DEE1002387F83F301AE062
:1009C800BB681B68002B06DA97F83F307A68134437
:1009D80031221A7005E097F83F307A6813443022C4
:1009E8001A70BB681B685A00BB681A6097F83F30DA
:1009F800013387F83F3097F83F301F2BE0D997F83D
:100A08003F307A68134400221A70B4E1BB68FB6275
:100A1800FB6A1B68002B0EDA7B8A1A467B68134434
:100A28002D221A707B8A01339BB27B82FB6A1B687A
:100A38005A42FB6A1A60FB6A1B681A4607F11403DC
:100A480018461146FFF790FE07F1140207F112034A
:100A5800104619467A68FFF7C1FE8CE1BB681B682F
:100A68007B63202387F83330D7ED0D7AF5EEC07A13
:100A7800F1EE10FA0FD57B8A1A467B6813442D22B3
:100A88001A707B8A01339BB27B82D7ED0D7AF1EE27
:100A9800677AC7ED0D7AD7ED0D7AB7EE007AF4EEE6
:100AA800C77AF1EE10FA1CD52D2387F83330B34BF3
:100AB800BB6301233B860AE0D7ED0E7A9FEDB07A3F
:100AC80067EE877AC7ED0E7A3B8E01333B8697ED4A
:100AD8000D7AD7ED0E7AB4EEE77AF1EE10FAEBD490
:100AE80024E04FF07E53BB6300233B860AE0D7ED3A
:100AF8000E7AB2EE047A67EE877AC7ED0E7A3B8EED
:100B080001333B8697ED0D7AD7ED0E7AB4EEE77A8E
:100B1800F1EE10FAEBDCD7ED0E7AB2EE047AC7EEFE
:100B2800877AC7ED0E7A3B8E013B3B8697ED0D7AAF
:100B3800D7ED0E7AC7EE277AC7ED0D7AD7ED0D7A85
:100B4800FCEEE77A17EE903ABB62BB6A07EE903A82
:100B5800F8EE677A97ED0D7A77EE677AC7ED0D7A3A
:100B6800D7ED0D7A9FED877A67EE877AFCEEE77A04
:100B780017EE903A7B6207F114031846B96AFFF73B
:100B8800F3FD07F1140207F11203104619467A68BB
:100B9800FFF724FE07F114031846796AFFF7E4FD0E
:100BA8002E23FB7507F1140207F1120310461946AC
:100BB8007A68FFF713FE7B8A1A467B68134465221E
:100BC8001A707B8A01339BB27B8297F833302D2BC6
:100BD80009D17B8A1A467B6813442D221A707B8AB6
:100BE80001339BB27B823B8E07F1140210461946F3
:100BF800FFF7BAFD07F1140207F112031046194670
:100C08007A68FFF7EBFDB6E0002387F83F302BE06A
:100C1800BB681B6803F0F0031B0987F8233097F8BB
:100C28002330092B09D87B8A1A467B68134497F826
:100C380023203032D2B21A7008E07B8A1A467B68C9
:100C4800134497F823203732D2B21A70BB681B6856
:100C58001A01BB681A607B8A01339BB27B8297F8C2
:100C68003F30013387F83F3097F83F30012BCFD919
:100C78007B8A1A467B68134400221A707BE00023A3
:100C880087F83F302BE0BB681B6803F470431B0BED
:100C980087F8223097F82230092B09D87B8A1A4620
:100CA8007B68134497F822203032D2B21A7008E0D9
:100CB8007B8A1A467B68134497F822203732D2B2CF
:100CC8001A70BB681B681A01BB681A607B8A0133FB
:100CD8009BB27B8297F83F30013387F83F3097F813
:100CE8003F30032BCFD97B8A1A467B6813440022F6
:100CF8001A7040E0002387F83F3029E0BB681B6882
:100D08001B0F87F8213097F82130092B09D87B8AE7
:100D18001A467B68134497F821203032D2B21A70F1
:100D280008E07B8A1A467B68134497F821203732FB
:100D3800D2B21A70BB681B681A01BB681A607B8A3A
:100D480001339BB27B8297F83F30013387F83F30FD
:100D580097F83F30072BD1D97B8A1A467B68134412
:100D680000221A7007E07B6800221A7000BF02E0B8
:100D780000BF00E000BF4037BD4680BDCDCCCC3DB4
:100D8800CDCCCC3D00007A4480B586B000AF4FF49E
:100D98008073FB600A23BB6000237B6150E07B69A2
:100DA8001B02344A82FB03125211DB17D31AFB7160
:100DB800FB79542B0ED8FB791A4652001344FB7466
:100DC800FB791A469B00D31ADBB2013BBB740023A4
:100DD8007B7425E0FB79A92B11D8FB79553BFB7176
:100DE800FB791A469B00D31ADBB2013BFB74002344
:100DF800BB74FB791A46520013447B7410E0FB79EC
:100E08005633FB710023FB74FB791A4652001344D6
:100E1800BB74FB791A469B00D31ADBB2013B7B7487
:100E28007B6998B2F97CBA7C7B7C00F04DFD00F0C0
:100E380091FDBB681846FFF70BFA7B6901337B61AC
:100E48007B69BF2BABDD00237B610DE07B699BB227
:100E5800184600F0F5FD00F07DFDBB681846FFF769
:100E6800F7F97B6901337B617B69BF2BEEDD1837AE
:100E7800BD4680BDABAAAA2A80B584B002AF0023C4
:100E8800009300204021FF22002300F043FD00F0E2
:100E980061FD41F28830FFF7DBF900230093402021
:100EA800802180223C2300F035FD00F053FD4FF4F3
:100EB800FA60FFF7CDF9002300930020802100227B
:100EC800002300F027FD00F045FD0023009380205B
:100ED800C0210022FF2300F01DFD00F03BFD41F67C
:100EE8005830FFF7B5F900237B6000237B601EE0D4
:100EF800002300938020C0210022FF2300F00AFD78
:100F080000F028FD4FF4FA70FFF7A2F900230093D0
:100F18008020C0210022002300F0FCFC00F01AFD14
:100F28004FF4FA70FFF794F97B6801337B607B68B4
:100F3800042BDDDD002300934020802180223C2308
:100F480000F0E8FC00F006FD4FF4FA60FFF780F9C6
:100F580000230093402080210022002300F0DAFCC7
:100F680000F0F8FC0837BD4680BD00BF80B500AF73
:100F7800154A154B1B6843F001031360124B0022FE
:100F88009A60114A104B1B6823F0847323F4803352
:100F980013600D4B0D4A5A600B4A0B4B1B6823F428
:100FA80080231360084B0022DA6000F08FF8084AAB
:100FB800074BD3F8883043F47003C2F88830044BE9
:100FC8004FF000629A6080BD003802401030002463
:100FD80000ED00E080B487B000AF00233B61002340
:100FE8007B610223FB600023BB6002237B60324BE2
:100FF8009B6803F00C033B613B69042B07D0082B6B
:1010080009D0002B3FD12D4B2D4A1A603FE02B4BC6
:101018002C4A1A603BE0284B5B6803F480039B0D65
:10102800BB60254B5B6803F03F037B60BB68002B0C
:101038000DD0244A7B68B2FBF3F21F4B596847F680
:10104800C0730B409B0903FB02F37B610CE01C4A55
:101058007B68B2FBF3F2184B596847F6C0730B4034
:101068009B0903FB02F37B61134B5B6803F440337A
:101078001B0C01335B00FB607A69FB68B2FBF3F37E
:101088000E4A136003E00D4B0D4A1A6000BF0A4B6D
:101098009B6803F0F0031B090B4AD35CDBB23B618E
:1010A800064B1A683B6922FA03F3044A13601C379B
:1010B800BD465DF8047B70470038024008000020F8
:1010C8000024F40000127A000C00002080B483B0E1
:1010D80000AF00237B6000233B60354A344B1B681C
:1010E80043F480331360324B1B6803F400333B60D6
:1010F8007B6801337B603B68002B03D17B68B3F5C9
:10110800A06FF0D12A4B1B6803F40033002B02D0E8
:1011180001233B6001E000233B603B68012B42D187
:10112800234A234B1B6C43F080531364214A214B01
:101138001B6843F4804313601D4A1D4B9B689360F2
:101148001B4A1B4B9B6843F400439360184A184B97
:101158009B6843F4A0539360154B174A5A60144A8E
:10116800134B1B6843F08073136000BF104B1B6860
:1011780003F00073002BF9D0104B40F205621A609F
:101188000B4A0B4B9B6823F003039360084A084BF8
:101198009B6843F00203936000BF054B9B6803F014
:1011A8000C03082BF9D10C37BD465DF8047B70475A
:1011B800003802400070004008544007003C0240DC
:1011C80080B483B000AF7860184A184B1B6B43F0AB
:1011D80001031363154A154B1B6C43F40033136466
:1011E800134A134B1B6843F0A0031360104A104BBB
:1011F8001B6A43F4EE4313620D4A0D4B9B6843F0A0
:10120800200393600A4A0A4B9B6843F0800393606B
:10121800084B7A6892B21A81064B42F208029A8108
:101228000C37BD465DF8047B704700BF00380240AC
:10123800000002400044004080B483B000AF034681
:10124800FB7100BF074B1B889BB203F04003002BC8
:10125800F8D0044BFA7992B29A800C37BD465DF803
:10126800047B7047004400400FB4B0B594B000AFA1
:101278000023A7F84E3007F164037B60C3E1B7F899
:101288004E303A6E13441B78252B40F0A581B7F8F1
:101298004E3001333A6E13441B78002B00F0AE81B8
:1012A800B7F84E3001333A6E13441B78623B162B65
:1012B80000F26F8101A252F823F000BF2113000849
:1012C80045140008B31300089B1500087B14000898
:1012D8009B1500089B1500089B1500089B15000826
:1012E8009B1500089B1500089B1500089B15000816
:1012F8009B1500089B1500089B1500089B15000806
:10130800631400089B1500089B1500089B1500082E
:101318009B15000801150008B7F84E3002333A6EE5
:1013280013441B78622B08D17B681A1D7A601B68EE
:10133800BB600123A7F84C302EE0B7F84E300233DB
:101348003A6E13441B78682B08D17B681A1D7A60A3
:101358001B68BB600223A7F84C301DE0B7F84E307D
:1013680002333A6E13441B78772B08D17B681A1D19
:101378007A601B68BB600423A7F84C300CE07B68DC
:101388001A1D7A601B68BB600423A7F84C30B7F8B5
:101398004E30013BA7F84E30B7F84E300133A7F86E
:1013A8004E3007F10803BB64FCE0B7F84E30023357
:1013B8003A6E13441B78622B08D17B681A1D7A6039
:1013C8001B68BB600823A7F84C302EE0B7F84E30F6
:1013D80002333A6E13441B78682B08D17B681A1DB8
:1013E8007A601B68BB601023A7F84C301DE0B7F883
:1013F8004E3002333A6E13441B78772B08D17B6842
:101408001A1D7A601B68BB602023A7F84C300CE0DB
:101418007B681A1D7A601B68BB602023A7F84C30D4
:10142800B7F84E30013BA7F84E30B7F84E300133CD
:10143800A7F84E3007F10803BB64B3E07B681A1DB8
:101448007A601B6887F8473097F847301846FFF7E7
:10145800F3FE4023A7F84C30A4E07B681A1D7A609D
:101468001B683B64386C00F0DDF88023A7F84C302B
:1014780098E07B68073323F0070303F108027A60DA
:10148800D3E90023C7E90E23BB6B7B637B6B5B0F40
:101498007B63D7E90E231C0000252346BB60BB688D
:1014A80023F07843BB60BB68DB00BB60BA687B6B2A
:1014B8001343BB60D7E90E23002A73F1000303DA54
:1014C800BB6843F00043BB60D7E90E234FF0000030
:1014D8004FF0804102EA000203EA0103134303D0FC
:1014E800BB6843F08043BB6007F10803BB644FF45B
:1014F8008073A7F84C3055E0B7F84E3002333A6E97
:1015080013441B78622B09D17B681A1D7A601B680B
:10151800BB604FF40073A7F84C3031E0B7F84E3099
:1015280002333A6E13441B78682B09D17B681A1D65
:101538007A601B68BB604FF48063A7F84C301FE0EB
:10154800B7F84E3002333A6E13441B78772B09D123
:101558007B681A1D7A601B68BB604FF40063A7F8AC
:101568004C300DE07B681A1D7A601B68BB604FF435
:101578000063A7F84C30B7F84E30013BA7F84E305F
:10158800B7F84E300133A7F84E3007F10803BB64B3
:1015980008E00023BB6007F10803BB640023A7F839
:1015A8004C3000BFB7F84C3023F0C003002B0DD0EF
:1015B800B7F84C2007F10C031046B96C1A46FFF730
:1015C80065F907F10C03184600F02CF8B7F84E300F
:1015D8000133A7F84E3011E0B7F84E303A6E134495
:1015E8001B781846FFF728FEB7F84E303A6E1344BA
:1015F8001B780A2B02D10D20FFF71EFEB7F84E30DC
:101608000133A7F84E30B7F84E303A6E13441B78C2
:10161800002B7FF434AE00BF5037BD46BDE8B04064
:1016280004B0704780B584B000AF78600023FB81B8
:1016380017E0FB897A6813441B781846FFF7FCFD0E
:10164800FB897A6813441B780A2B02D10D20FFF717
:10165800F3FDFB890133FB81FB89B3F5806F00D172
:1016680005E0FB897A6813441B78002BE1D1103719
:10167800BD4680BD80B483B000AF0346FB71084906
:1016880097F907305B09FA7902F01F02012000FA86
:1016980002F241F823200C37BD465DF8047B704701
:1016A80000E100E080B483B000AF03463960FB710D
:1016B80097F90730002B0BDA0D49FB7903F00F037C
:1016C800043B3A68D2B21201D2B20B441A7609E04E
:1016D800084997F907303A68D2B21201D2B20B44DE
:1016E80083F800230C37BD465DF8047B704700BFC4
:1016F80000ED00E000E100E080B400AF2F4A2F4B7E
:101708001B6B43F0080313632D4A2D4B1B6843F0F2
:101718002A4313602A4A2A4B5B685360284A284B9D
:101728005B6A43F0085343F408135362234A234B7C
:101738001B6C43F004031364224B00221A85214BCF
:101748006822DA621F4A1F4B9B8B9BB243F06803E7
:101758009BB293831B4A1B4B1B8C9BB223F40073D5
:101768009BB21384174A174B1B889BB243F0840320
:101778009BB21380134A134B9B8A9BB243F001031D
:101788009BB293820F4A0F4B1B8C9BB243F480731E
:101798009BB213840B4A0B4B9B899BB243F4904337
:1017A8009BB29381074A074B9B8A9BB243F008037D
:1017B8009BB29382BD465DF8047B704700380240B7
:1017C800000C02400008004080B500AF2E4A2E4BA6
:1017D8001B6B43F4001313632C4A2C4B1B6823F038
:1017E8000103136000BF294B1B6803F00103002BA2
:1017F800F9D12649254B1A68254B13400B60234B1A
:10180800244A9A60214B244ADA60204B41F2322262
:101818005A60224A214B9B899BB243F480739BB246
:1018280093811A4A194B1B6843F080631360174A67
:10183800164B1B6843F400331360144A134B1B68A0
:1018480043F040031360114A104B1B6843F4806354
:1018580013600E4A0D4B1B6843F0100313600B4ACC
:101868000A4B1B6843F400531360084A074B1B6874
:1018780043F4006313602F200021FFF713FF2F208C
:10188800FFF7F8FE80BD00BF00380240B860024094
:10189800000010F03C0800407007002000080040DD
:1018A80080B400AF064B01221A70064A054BDB686C
:1018B80043F00063D360BD465DF8047B704700BF0A
:1018C8006C0400200060024090B482B000AF04466F
:1018D800084611461A462346FB8003467B710B4691
:1018E8003B711346FB70FB880949FA7801F82320FD
:1018F800FB88074A9B0013447A795A70FB88044A8C
:101908009B0013443A799A700837BD4690BC7047DB
:101918007004002090B583B000AF04460846114615
:101928001A462346FB800346BB800B46FB701346D2
:10193800BB7008E0F888F978BA783B7EFFF7C4FFF7
:10194800FB880133FB80FA88BB889A42F2D30C37B4
:10195800BD4690BD80B485B000AF0023FB81002355
:10196800BB60324B7B600023FB8121E017233B6087
:1019780015E07B681B6801213A6801FA02F21340FE
:10198800002B01D0432100E02221294ABB6822F81C
:101998001310BB680133BB603B68013B3B603B688D
:1019A800002BE6DA7B6804337B60FB890133FB811B
:1019B800FB89BF2BDAD90023FB810AE01C4ABB68EC
:1019C800002122F81310BB680133BB60FB89013387
:1019D800FB81FB89272BF1D9164A164B1B889BB232
:1019E80043F001039BB21380134A134B1B6843F067
:1019F8000103136000BF114B1B78DBB2002BFAD038
:101A08000C4A0C4B1B889BB223F001039BB213803A
:101A1800094A094B1B6823F001031360074B002296
:101A28001A701437BD465DF8047B704770040020B7
:101A38007007002000080040B86002406C040020D5
:101A480080B483B000AF0346FB80FB88044A0021C2
:101A580042F823100C37BD465DF8047B704700BF81
:101A68007004002080B483B000AF00237B6007E0DF
:101A7800074A7B68002142F823107B6801337B60AA
:101A88007B68BF2BF4DD0C37BD465DF8047B7047DF
:101A980070040020B41E0008000000204C04002040
:101AA80050040020D42B0020002103E00B4B5B588E
:101AB800435004310A480B4B42189A42F6D30A4A5B
:101AC80002E0002342F8043B084B9A42F9D3FFF79F
:101AD8004DFA00F01FF8FEF797FD7047B41E000896
:101AE800000000204C04002050040020D42B0020CB
:101AF800FEE7000008B50021044600F08BF8044B0F
:101B08001868C36B03B19847204600F0C5F900BFB9
:101B1800801E000870B50F4E0F4D761BB61018BF0B
:101B2800002405D0013455F8043B9847A642F9D162
:101B38000A4E0B4D761B00F0A3F9B61018BF00240F
:101B480006D0013455F8043B9847A642F9D170BD38
:101B580070BD00BFA81E0008A81E0008B01E00081F
:101B6800A81E000870B4840746D0541E002A41D02D
:101B7800CDB2034602E0621EE4B3144603F8015BEB
:101B88009A07F8D1032C2ED9CDB245EA05250F2C9A
:101B980045EA054519D903F110022646103E0F2ED5
:101BA80042F8105C42F80C5C42F8085C42F8045CAD
:101BB80002F11002F2D8A4F1100222F00F0204F090
:101BC8000F041032032C13440DD91E462246043A42
:101BD800032A46F8045BFAD8221F22F003020432D3
:101BE800134404F003042CB1C9B21C4403F8011BCC
:101BF800A342FBD170BC704714460346C2E700BF3E
:101C0800024B13B1024800F06FB8704700000000A3
:101C1800FD1C00082DE9F04F314B83B01B68009381
:101C280003F5A47381460E460193009BD3F84871CF
:101C380027B3DDF804A07C68651E0ED4013407EBD9
:101C480084044FF00008E6B1D4F80031B34218D04C
:101C5800013D6B1CA4F10404F5D1224B73B17B68E0
:101C6800002B36D13B68002B34D03846CAF80030F8
:101C7800AFF30080DAF80070002FDCD103B0BDE8C4
:101C8800F08F7B682268013BAB420CBF7D60C4F8D3
:101C98000080002ADCD0D7F88831D7F804B00121B9
:101CA800A940194208D190477B685B45BDD1DAF855
:101CB8000030BB42CCD0B8E7D7F88C31194204D1F8
:101CC8004846D4F880109047EEE7D4F88000904753
:101CD800EAE73B68BA461F46002FACD1CEE700BF03
:101CE800801E00080000000001460020024603464E
:101CF80000F016B838B5084B084DED1AAC1018BFEF
:101D0800ED1805D0013C55F8043D9847002CF9D151
:101D1800BDE8384000F0BAB8B01E0008B41E00088C
:101D28002DE9F047254C2568D5F8484106468846F0
:101D380092469946CCB360681F2818DC431C7EB1D4
:101D480004EB80050121C5F888A0D4F8887101FA50
:101D580000F21743022EC4F88871C5F808911ED006
:101D68000230636044F820800020BDE8F087144BFF
:101D780003B34FF4C870AFF300800446D0B1D5F870
:101D88004831002780E88800C5F8484138460123D3
:101D9800C4F88871C4F88C71002EE1D0D0E7D4F86B
:101DA8008C110A43C4F88C21DAE705F5A674C5F846
:101DB8004841C0E74FF0FF30BDE8F087801E0008BB
:101DC80000000000FEE700BF0A777777777777771C
:101DD800777777777777777777777777777777778B
:101DE800777777777777777777777777777777777B
:101DF80077777777777777777777777777770A004F
:101E080077205374617274696E67207465737420E7
:101E18006170702E2E2E00006D61696E3A20737409
:101E2800617465202D3E206E6F726D616C0A000032
:101E38006D61696E3A207374617465202D3E20656A
:101E48006D657267656E63790A0000006973723A9E
:101E5800204750494F432D3E494452205B25785D29
:101E680000000000484947480A0000004C4F570A44
:101E780000000000430000002000002000000000D7
:101E8800F8B500BFF8BC08BC9E467047F8B500BF5F
:081E9800F8BC08BC9E4670472F
:081EA00044E3FF7F0100000094
:081EA800091C0008AD0100084F
:041EB000890100089C
:101EB4000000000001000000007A030A0000000096
:101EC40000000000010203040607080900000000E6
:101ED400000000000C03002074030020DC03002039
:101EE40000000000000000000000000000000000EE
:101EF40000000000000000000000000000000000DE
:101F0400000000007C1E000800000000000000002B
:101F140000000000000000000000000000000000BD
:101F240000000000000000000000000000000000AD
:101F3400000000000000000000000000000000009D
:101F4400000000000000000000000000000000008D
:101F5400000000000000000000000000000000007D
:101F6400000000000000000000000000000000006D
:101F7400000000000000000001000000000000005C
:101F84000E33CDAB34126DE6ECDE05000B00000021
:101F9400000000000000000000000000000000003D
:101FA400000000000000000000000000000000002D
:101FB400000000000000000000000000000000001D
:101FC400000000000000000000000000000000000D
:0C22F4000000000000000000200000209E
:0423000000000000D9
:0400000508001AB124
:00000001FF
