:020000040800F2
:1000000000000220D10F0008191000081910000884
:10001000191000081910000819100008000000004D
:10002000000000000000000000000000191000089F
:10003000191000080000000019100008191000082D
:1000400019100008191000081910000819100008EC
:1000500019100008191000081910000819100008DC
:1000600019100008191000081910000819100008CC
:1000700019100008191000081910000819100008BC
:1000800019100008191000081910000819100008AC
:10009000191000081910000819100008191000089C
:1000A000191000081910000819100008191000088C
:1000B000191000081910000819100008191000087C
:1000C000191000081910000819100008191000086C
:1000D000191000081910000819100008191000085C
:1000E000191000081910000819100008191000084C
:1000F000191000081910000819100008191000083C
:10010000191000081910000819100008191000082B
:10011000191000081910000819100008191000081B
:10012000191000081910000819100008191000080B
:1001300019100008191000081910000819100008FB
:1001400019100008191000081910000819100008EB
:100150001910000819100008BD0300081910000844
:1001600019100008191000081910000819100008CB
:1001700019100008191000081910000819100008BB
:08018000191000081910000815
:1001880010B5054C237833B9044B13B10448AFF3C9
:1001980000800123237010BD5004002000000000DF
:1001A80068130008084B10B51BB108480849AFF39D
:1001B80000800848036803B910BD074B002BFBD02B
:1001C800BDE81040184700BF000000006813000891
:1001D800540400204C04002000000000154B002BA4
:1001E80008BF134B9D46A3F5803A00218B460F4666
:1001F8001348144A121A00F045FF0F4B002B00D089
:1002080098470E4B002B00D098470020002104008F
:100218000D000D48002802D00C4800F0F5FF00F052
:1002280009FF2000290000F083FE00F0F3FE00BF64
:1002380000000800000000000000000000000000AE
:1002480050040020D4120020111200081D120008CA
:100258002C482D4A016B2D4B41F0080110B4016365
:10026800116841F02A41116051685160516A41F0AA
:10027800085141F408115162026C6824002142F0CF
:10028800040202641985DC62D9631A8B92B2224394
:100298001A831A8B92B242F4D0421A839A8B92B282
:1002A80022439A839A8B92B242F4D0429A831A8C50
:1002B80022F4085222F022021204120C1A841A881C
:1002C80092B242F084021A809A8A92B242F00102F3
:1002D8009A821A8C92B242F4885242F011021A841D
:1002E8009A8992B242F400629A819A8A92B242F052
:1002F80008029A821A885DF8044B92B242F0010211
:100308001A80704700380240000C02400008004084
:10031800214B22494FF400121A630B6823F00103A2
:100328000B600A681D4BD207FBD4F0B41C481C684C
:100338001C4A1D4E1D4D1E49204018601068146847
:1003480060401060506857684FF4C064784050604F
:100358009E60DD605C601A6842F080621A601A680C
:1003680042F400321A601A6842F040021A601A68B1
:1003780042F480621A601A6842F010021A601A6821
:1003880042F400521A601A68402042F400621A606F
:10039800F0BC8860704700BF00380240B860024077
:1003A800000010F0006002403C0800407006002089
:1003B80000E100E00649074A0B68074823F00103FB
:1003C8000B609368012143F00063936001607047FC
:1003D800B8640240006402406C0400200E4BF0B484
:1003E80040EA01210D4C5F881E8841EA024217232A
:1003F800012101FA03F5154203F1FF3314BF2780E9
:100408002680581CA4F10204F3D1054A136843F06E
:1004180001031360F0BC7047040000209E06002012
:10042800B860024030B4054D05EB800405F82000A3
:100438006270A170E37030BC704700BF7004002088
:10044800F8B51F4B1F4F5E881D88DFF890E007F551
:10045800807C0124BA787878FB78120242EA00405E
:1004680018437246172304FA03F1014203F1FF33DC
:1004780014BF16801580591C02F10202F3D104370B
:1004880067450EF1300EE5D10F4B002103F16402F0
:1004980023F8021F93424FF00004F9D10B490C4A8C
:1004A8000B880C489BB243F001030B80136843F0A0
:1004B8000103136000F03EFA074B1C60F8BD00BF53
:1004C80004000020700400206E1200200008004084
:1004D800B8600240F01200086C040020700600208A
:1004E800074800230246194600F823300133402B01
:1004F80051709170D17002F10402F5D1704700BFBC
:1005080070040020394B3A481A68002142F0010271
:100518001A6099601A6822F0847222F480321A6094
:1005280058601A6882B022F480221A60D96000915B
:1005380001911A6842F480321A601A4603E0009B5F
:10054800B3F5A06F09D0136803F400330193009B3F
:1005580001330093019B002BF1D0244B1B6813F44B
:10056800003318BF01230193019B012B0BD0214BB2
:10057800D3F888204FF0006142F47002C3F8882055
:10058800996002B07047194B1B491A6C1B4842F01E
:1005980080521A640A6842F480420A609A689A6033
:1005A8009A6842F400429A609A6842F4A0529A60AB
:1005B80058601A6842F080721A601A4611680B4B2C
:1005C8008901FBD50E4A40F2056111609A6822F054
:1005D80003029A609A6842F002029A601A46936887
:1005E80003F00C03082BFAD1C1E700BF0038024022
:1005F8001030002400ED00E000700040085440076F
:10060800003C02401848836803F00C03042B28D0F0
:10061800082B09D0154B144A15499268C2F30312E6
:100628008A5CD3400B6170474368416813F4800FBC
:10063800436818BF0F4801F03F020CBF0B49B0FBDD
:10064800F2F1C3F3881308BFB1FBF2F101FB03F227
:10065800054B5B68C3F3014301335B00B2FBF3F363
:10066800D9E7044BD7E700BF003802400024F40064
:100678000800002000127A0019491A4A0B6C70B45D
:1006880043F0400353264FF47A7584240B6416858F
:10069800D5621480938A9BB243F001039382138836
:1006A8009BB243F001031380114650B1138ADB0754
:1006B800FCD50B8A23F001031B041B0C01380B82A9
:1006C800F4D10849064A0B8823F001031B041B0CCC
:1006D8000B80136C23F04003136470BC704700BF99
:1006E80000380240001800401849194A0B6C70B4D1
:1006F80043F040030026542584240B641685D562F4
:100708001480938A9BB243F00103938213889BB2AF
:1007180043F001031380114650B1138ADB07FCD55F
:100728000B8A23F001031B041B0C01380B82F4D144
:100738000749064A0B8823F001031B041B0C0B8096
:10074800136C23F04003136470BC704700380240F8
:10075800001800401849194A0B6C70B443F0400364
:100768000026152584240B641685D5621480938A87
:100778009BB243F00103938213889BB243F00103B9
:100788001380114650B1138ADB07FCD50B8A23F07E
:1007980001031B041B0C01380B82F4D10749064ADC
:1007A8000B8823F001031B041B0C0B80136C23F034
:1007B8004003136470BC70470038024000180040C2
:1007C80070B40948094B026C53264FF0FF35842456
:1007D800002142F0080202641E85DD621C809980B7
:1007E80070BC5962704700BF00380240000C0040DE
:1007F800054A938A9BB243F00103938213889BB204
:1008080043F0010313807047000C0040044A506A0B
:10081800138823F001031B041B0C1380704700BFCF
:10082800000C00400E48026C4FF0804370B442F058
:10083800010253264FF0FF358424002102641E85EF
:10084800DD621C80998059629A8A92B242F0010254
:100858009A821A8892B242F001021A8070BC7047DC
:10086800003802404FF08043586A70474FF0804389
:100878005B6A834205D3084483422CBF00200120D1
:100888007047C0431844814294BF0020012070473C
:10089800114A124B116B41F0010110B41163116C34
:1008A8000F4C41F4003111641A6842F0A0021A603A
:1008B8001A6A42F4EE421A629A6842F020029A607A
:1008C8009A6880B242F0800242F208019A60208160
:1008D800A1815DF8044B70470038024000000240D7
:1008E8000044004003490B88024A5B06FBD580B2EE
:1008F80090807047004400400D4A70B4441E00F2D6
:10090800FF350D26104614F8011F49B113885B0600
:10091800FCD589B2818023780A2B03D0AC42F2D16E
:1009280070BC704713885B06FCD58680F6E700BF6D
:10093800004400400FB42DE9F0418CB012AB53F8DD
:10094800046B01933278BAB1754C002327461D46D3
:1009580031464FF00D08252A19D023885806FCD5B2
:1009680092B2BA800B780A2B0BD00135ADB22B4668
:10097800725D7119002AEED10CB0BDE8F04104B0E7
:10098800704723885B06FCD5A7F80480EDE733445D
:100998005A78002AE9D0623A162A79D8DFE802F0B4
:1009A8005C6E4C7828787878787878787878787861
:1009B800781F787878780C009B78622B7ED0682B2B
:1009C80000F08B80772B019B00F09C801A1D013D65
:1009D8001B680192ADB200934FF400604BE0019B9D
:1009E8001A1D18680192FFF787FF0135ADB2BCE701
:1009F800019B073323F00703D3E900010833420FB3
:100A080021F0784E0028019342EACE0371F10002EA
:100A1800B8BF43F00043002001F08041009350EA42
:100A2800010338D14FF4807002AA694600F0BAF881
:100A380002A8FFF761FFD8E79B78622B30D0682BBC
:100A480053D0772B019B64D01A1D013D1B6801927E
:100A5800ADB2009320200EE09B78622B27D0682B44
:100A680034D0772B019B47D01A1D013D1B6801929A
:100A7800ADB2009304200135ADB2D5E7019B191D35
:100A88001A78019123885B06FCD593B2BB80ACE74A
:100A980000230093A9E7009B43F080430093C1E73C
:100AA800019B1A1D1B68019200930820E3E7019B34
:100AB8001A1D1B68019200930120DCE7019B1A1D97
:100AC8001B68019200934FF40070D4E7019B1A1D34
:100AD8001B68019200930220CDE7019B1A1D1B6839
:100AE800019200934FF48060C5E7019B1A1D1B68B3
:100AF800019200931020BEE71A1D1B680192009313
:100B08000420B8E71A1D1B68019200934FF4006097
:100B1800B1E71A1D1B68019200932020ABE700BFC4
:100B280000440040F0B40D4A0D4F00F10A0530268C
:100B3800914205F8016D08D3312400E01C46891A5A
:100B4800631C9142DBB2F9D22C70A7FB02328542BA
:100B58004FEAD202ECD1F0BC704700BF00CA9A3B02
:100B6800CDCCCCCC70B40B88002509302C46ADB95F
:100B78000678302E0FD0D6540B8801339BB20B80E9
:100B880001250134E4B20A2C00F1FF30EFD1002135
:100B9800D15470BC7047092CF3D1ECE70578D554D3
:100BA800EAE700BF2DE9F04784B000231028154676
:100BB8001370ADF8023000F0548124D9B0F5007FED
:100BC8004FD040F28280B0F5806F64D0B0F5006FEE
:100BD80016D11A4601240B6800E004461B0F092BA6
:100BE80003F130008ABF3733A854AB54601C0B683C
:100BF80080B21B0109280B602246EED100232B721C
:100C080004B0BDE8F087022800F0148117D9042841
:100C180040F024810B6805F1200030243126002B98
:100C2800B4BF167014700B6801325B0082420B600F
:100C3800F5D1002385F8203004B0BDE8F0870128FD
:100C4800DED10B6805F10800302631241F064CBFA1
:100C5800147016700B6801325B0082420B60F5D18C
:100C6800CCE71A460B680124C3F30313092BD8B247
:100C780000F1300386BF3730A854AB54601C0B68B2
:100C880080B21B0103280B6040F0D1800023AB70B9
:100C980004B0BDE8F0871A460B681446C3F3033363
:100CA800092BD8B200F130038ABF37302B552855AD
:100CB80001320B6892B21B01042A14460B60EDD175
:100CC80000232B7104B0BDE8F087202800F0C9800C
:100CD800B0F5807F94D191ED007AB5EEC07AF1EE4F
:100CE80010FA00F1FA80F7EE007AB4EEE77AF1EE46
:100CF80010FA00F1DC8040F301810023B2EE046AAF
:100D080067EE867A0133B4EEE77AF1EE10FA9BB219
:100D1800F2EE046AF4DCC7EEA67A5C1EA4B24FF0C9
:100D280020080DF10E077949DFF8ECC1384601AE0D
:100D38004FF0300EC7EE277A9FED757AFCEEE76A22
:100D480016EE902AF8EE666A77EEE67A67EE877A0C
:100D5800FCEEE77A17EE90AA914200F801ED0BD865
:100D68004FF0310900E09946521A09F101038A420D
:100D7800DBB2F8D280F80090ACFB0131B0424FEA08
:100D8800D101E9D10DF10209494630462A46FFF75B
:100D9800E9FE5E4ADFF880E139463020524501F825
:100DA800010D0CD84FF0310C00E09C46C2EB0A0A4A
:100DB8000CF101039245DBB2F7D281F800C0AEFB1B
:100DC80002328E424FEAD202E8D12E2349462A4601
:100DD80030468DF80730FFF7C5FEBDF80220531CDA
:100DE80065219BB2B8F12D0FA954ADF8023058D047
:100DF800464ADFF824E13020A24207F8010D08D85E
:100E0800312100E01946A41A4B1C9442DBB2F9D2F6
:100E18003970AEFB0232BE424FEAD202ECD1304604
:100E280049462A46FFF79EFE04B0BDE8F0872246F1
:100E3800044619E70B6805F11000302631241B041D
:100E48004CBF147016700B6801325B0082420B6055
:100E5800F5D100232B7404B0BDE8F08708287FF48F
:100E6800CFAE0A68002A40DB2849DFF8ACE001AEC3
:100E78000DF10E043027914204F8017D08D8312085
:100E880000E01846521A431C8A42DBB2F9D220709D
:100E9800AEFB0131B4424FEAD101ECD10DF10209A8
:100EA800BDE7023205F80380ADF80220A0E7DFEDC8
:100EB800197AB4EEE77AF1EE10FA24D5F0EE676A03
:100EC800012467EEA67A0134B4EEE77AF1EE10FA5F
:100ED800A4B2F6D44FF02D0823E72D220123B1EE5A
:100EE800477A2A70ADF80230FDE62D232B700A6888
:100EF800012352420A60ADF80230B5E74FF6FF749D
:100F0800DFED047A0BE70124E4E700BF00CA9A3B4F
:100F180000007A44CDCCCC3DCDCCCCCC9813000885
:100F2800000000204C04002050040020D4120020AF
:100F380070B54FF4B670FFF7ABFC1E481E4CFFF7B8
:100F4800F9FC1E48FFF7F6FC1A48FFF7F3FC2546A4
:100F5800FFF77EF9FF26FFF7DBF922460023D9B217
:100F680005F8231001334800402B5170D07096705B
:100F780002F10402F3D1FFF763FA41F28830FFF778
:100F88007BFB0F4A0F48936843F000639360FFF7B9
:100F9800D1FC00231A46FF2105F823300133402BEA
:100FA8006170A270E27004F10404F5D1FFF748FA09
:100FB800FEE700BFF8120008700400203013000894
:100FC8000064024048130008002103E00B4B5B5803
:100FD800435004310A480B4B42189A42F6D30A4A46
:100FE80002E0002342F8043B084B9A42F9D3FFF78A
:100FF80089FA00F01FF8FFF79BFF70479813000865
:10100800000000204C04002050040020D4120020CE
:10101800FEE7000008B50021044600F08BF8044BF9
:101028001868C36B03B19847204600F0A7F900BFC2
:101038006413000870B50F4E0F4D761BB61018BF1D
:10104800002405D0013455F8043B9847A642F9D14D
:101058000A4E0B4D761B00F085F9B61018BF002418
:1010680006D0013455F8043B9847A642F9D170BD23
:1010780070BD00BF8C1300088C130008941300087F
:101088008C13000870B4840746D0541E002A41D03F
:10109800CDB2034602E0621EE4B3144603F8015BD6
:1010A8009A07F8D1032C2ED9CDB245EA05250F2C85
:1010B80045EA054519D903F110022646103E0F2EC0
:1010C80042F8105C42F80C5C42F8085C42F8045C98
:1010D80002F11002F2D8A4F1100222F00F0204F07B
:1010E8000F041032032C13440DD91E462246043A2D
:1010F800032A46F8045BFAD8221F22F003020432BE
:10110800134404F003042CB1C9B21C4403F8011BB6
:10111800A342FBD170BC704714460346C2E700BF28
:10112800024B13B1024800F06FB87047000000008E
:101138001D1200082DE9F04F314B83B01B68009356
:1011480003F5A47381460E460193009BD3F84871BA
:1011580027B3DDF804A07C68651E0ED4013407EBC4
:1011680084044FF00008E6B1D4F80031B34218D037
:10117800013D6B1CA4F10404F5D1224B73B17B68CB
:10118800002B36D13B68002B34D03846CAF80030E3
:10119800AFF30080DAF80070002FDCD103B0BDE8AF
:1011A800F08F7B682268013BAB420CBF7D60C4F8BE
:1011B8000080002ADCD0D7F88831D7F804B00121A4
:1011C800A940194208D190477B685B45BDD1DAF840
:1011D8000030BB42CCD0B8E7D7F88C31194204D1E3
:1011E8004846D4F880109047EEE7D4F8800090473E
:1011F800EAE73B68BA461F46002FACD1CEE700BFEE
:10120800641300080000000001460020024603465F
:1012180000F016B838B5084B084DED1AAC1018BFD9
:10122800ED1805D0013C55F8043D9847002CF9D13C
:10123800BDE8384000F09CB89413000898130008E3
:101248002DE9F047254C2568D5F8484106468846DB
:1012580092469946CCB360681F2818DC431C7EB1BF
:1012680004EB80050121C5F888A0D4F8887101FA3B
:1012780000F21743022EC4F88871C5F808911ED0F1
:101288000230636044F820800020BDE8F087144BEA
:1012980003B34FF4C870AFF300800446D0B1D5F85B
:1012A8004831002780E88800C5F8484138460123BE
:1012B800C4F88871C4F88C71002EE1D0D0E7D4F856
:1012C8008C110A43C4F88C21DAE705F5A674C5F831
:1012D8004841C0E74FF0FF30BDE8F08764130008CD
:1012E80000000000FEE700BF697A61736F0A000022
:1012F8000A777777777777777777777777777777E3
:101308007777777777777777777777777777777765
:101318007777777777777777777777777777777755
:101328007777777777770A007720537461727469D3
:101338006E672074657374206170702E2E2E000005
:101348007072697072656D616D206472756769206D
:101358007365740A000000004300000020000020AC
:1013680000000000F8B500BFF8BC08BC9E467047F6
:0C137800F8B500BFF8BC08BC9E467047EA
:0813840060EEFF7F0100000094
:08138C0029110008AD01000861
:0413940089010008C3
:1013980000000000220043000000000000000000E0
:1013A8000102030406070809007A030A0000000086
:1013B800000000000C03002074030020DC03002060
:1013C8000000000000000000000000000000000015
:1013D8000000000000000000000000000000000005
:1013E800000000006013000800000000000000007A
:1013F80000000000000000000000000000000000E5
:1014080000000000000000000000000000000000D4
:1014180000000000000000000000000000000000C4
:1014280000000000000000000000000000000000B4
:1014380000000000000000000000000000000000A4
:101448000000000000000000000000000000000094
:101458000000000000000000010000000000000083
:101468000E33CDAB34126DE6ECDE05000B00000048
:101478000000000000000000000000000000000064
:101488000000000000000000000000000000000054
:101498000000000000000000000000000000000044
:1014A8000000000000000000000000000000000034
:0C17D800000000000000000020000020C5
:0417E4000000000001
:0400000508000FD10F
:00000001FF
